{
  "_format": "hh3-artifact-1",
  "contractName": "Boleto3",
  "sourceName": "contracts/Boleto3.sol",
  "abi": [
    {
      "inputs": [
        {
          "internalType": "address",
          "name": "recipient",
          "type": "address"
        },
        {
          "internalType": "address",
          "name": "initialOwner",
          "type": "address"
        }
      ],
      "stateMutability": "nonpayable",
      "type": "constructor"
    },
    {
      "inputs": [],
      "name": "CheckpointUnorderedInsertion",
      "type": "error"
    },
    {
      "inputs": [],
      "name": "ECDSAInvalidSignature",
      "type": "error"
    },
    {
      "inputs": [
        {
          "internalType": "uint256",
          "name": "length",
          "type": "uint256"
        }
      ],
      "name": "ECDSAInvalidSignatureLength",
      "type": "error"
    },
    {
      "inputs": [
        {
          "internalType": "bytes32",
          "name": "s",
          "type": "bytes32"
        }
      ],
      "name": "ECDSAInvalidSignatureS",
      "type": "error"
    },
    {
      "inputs": [
        {
          "internalType": "uint256",
          "name": "increasedSupply",
          "type": "uint256"
        },
        {
          "internalType": "uint256",
          "name": "cap",
          "type": "uint256"
        }
      ],
      "name": "ERC20ExceededSafeSupply",
      "type": "error"
    },
    {
      "inputs": [
        {
          "internalType": "address",
          "name": "spender",
          "type": "address"
        },
        {
          "internalType": "uint256",
          "name": "allowance",
          "type": "uint256"
        },
        {
          "internalType": "uint256",
          "name": "needed",
          "type": "uint256"
        }
      ],
      "name": "ERC20InsufficientAllowance",
      "type": "error"
    },
    {
      "inputs": [
        {
          "internalType": "address",
          "name": "sender",
          "type": "address"
        },
        {
          "internalType": "uint256",
          "name": "balance",
          "type": "uint256"
        },
        {
          "internalType": "uint256",
          "name": "needed",
          "type": "uint256"
        }
      ],
      "name": "ERC20InsufficientBalance",
      "type": "error"
    },
    {
      "inputs": [
        {
          "internalType": "address",
          "name": "approver",
          "type": "address"
        }
      ],
      "name": "ERC20InvalidApprover",
      "type": "error"
    },
    {
      "inputs": [
        {
          "internalType": "address",
          "name": "receiver",
          "type": "address"
        }
      ],
      "name": "ERC20InvalidReceiver",
      "type": "error"
    },
    {
      "inputs": [
        {
          "internalType": "address",
          "name": "sender",
          "type": "address"
        }
      ],
      "name": "ERC20InvalidSender",
      "type": "error"
    },
    {
      "inputs": [
        {
          "internalType": "address",
          "name": "spender",
          "type": "address"
        }
      ],
      "name": "ERC20InvalidSpender",
      "type": "error"
    },
    {
      "inputs": [
        {
          "internalType": "uint256",
          "name": "deadline",
          "type": "uint256"
        }
      ],
      "name": "ERC2612ExpiredSignature",
      "type": "error"
    },
    {
      "inputs": [
        {
          "internalType": "address",
          "name": "signer",
          "type": "address"
        },
        {
          "internalType": "address",
          "name": "owner",
          "type": "address"
        }
      ],
      "name": "ERC2612InvalidSigner",
      "type": "error"
    },
    {
      "inputs": [
        {
          "internalType": "uint256",
          "name": "timepoint",
          "type": "uint256"
        },
        {
          "internalType": "uint48",
          "name": "clock",
          "type": "uint48"
        }
      ],
      "name": "ERC5805FutureLookup",
      "type": "error"
    },
    {
      "inputs": [],
      "name": "ERC6372InconsistentClock",
      "type": "error"
    },
    {
      "inputs": [],
      "name": "EnforcedPause",
      "type": "error"
    },
    {
      "inputs": [],
      "name": "ExpectedPause",
      "type": "error"
    },
    {
      "inputs": [
        {
          "internalType": "address",
          "name": "account",
          "type": "address"
        },
        {
          "internalType": "uint256",
          "name": "currentNonce",
          "type": "uint256"
        }
      ],
      "name": "InvalidAccountNonce",
      "type": "error"
    },
    {
      "inputs": [],
      "name": "InvalidShortString",
      "type": "error"
    },
    {
      "inputs": [
        {
          "internalType": "address",
          "name": "owner",
          "type": "address"
        }
      ],
      "name": "OwnableInvalidOwner",
      "type": "error"
    },
    {
      "inputs": [
        {
          "internalType": "address",
          "name": "account",
          "type": "address"
        }
      ],
      "name": "OwnableUnauthorizedAccount",
      "type": "error"
    },
    {
      "inputs": [
        {
          "internalType": "uint8",
          "name": "bits",
          "type": "uint8"
        },
        {
          "internalType": "uint256",
          "name": "value",
          "type": "uint256"
        }
      ],
      "name": "SafeCastOverflowedUintDowncast",
      "type": "error"
    },
    {
      "inputs": [
        {
          "internalType": "string",
          "name": "str",
          "type": "string"
        }
      ],
      "name": "StringTooLong",
      "type": "error"
    },
    {
      "inputs": [
        {
          "internalType": "uint256",
          "name": "expiry",
          "type": "uint256"
        }
      ],
      "name": "VotesExpiredSignature",
      "type": "error"
    },
    {
      "anonymous": false,
      "inputs": [
        {
          "indexed": true,
          "internalType": "address",
          "name": "owner",
          "type": "address"
        },
        {
          "indexed": true,
          "internalType": "address",
          "name": "spender",
          "type": "address"
        },
        {
          "indexed": false,
          "internalType": "uint256",
          "name": "value",
          "type": "uint256"
        }
      ],
      "name": "Approval",
      "type": "event"
    },
    {
      "anonymous": false,
      "inputs": [
        {
          "indexed": true,
          "internalType": "address",
          "name": "delegator",
          "type": "address"
        },
        {
          "indexed": true,
          "internalType": "address",
          "name": "fromDelegate",
          "type": "address"
        },
        {
          "indexed": true,
          "internalType": "address",
          "name": "toDelegate",
          "type": "address"
        }
      ],
      "name": "DelegateChanged",
      "type": "event"
    },
    {
      "anonymous": false,
      "inputs": [
        {
          "indexed": true,
          "internalType": "address",
          "name": "delegate",
          "type": "address"
        },
        {
          "indexed": false,
          "internalType": "uint256",
          "name": "previousVotes",
          "type": "uint256"
        },
        {
          "indexed": false,
          "internalType": "uint256",
          "name": "newVotes",
          "type": "uint256"
        }
      ],
      "name": "DelegateVotesChanged",
      "type": "event"
    },
    {
      "anonymous": false,
      "inputs": [],
      "name": "EIP712DomainChanged",
      "type": "event"
    },
    {
      "anonymous": false,
      "inputs": [
        {
          "indexed": true,
          "internalType": "address",
          "name": "previousOwner",
          "type": "address"
        },
        {
          "indexed": true,
          "internalType": "address",
          "name": "newOwner",
          "type": "address"
        }
      ],
      "name": "OwnershipTransferred",
      "type": "event"
    },
    {
      "anonymous": false,
      "inputs": [
        {
          "indexed": false,
          "internalType": "address",
          "name": "account",
          "type": "address"
        }
      ],
      "name": "Paused",
      "type": "event"
    },
    {
      "anonymous": false,
      "inputs": [
        {
          "indexed": true,
          "internalType": "address",
          "name": "from",
          "type": "address"
        },
        {
          "indexed": true,
          "internalType": "address",
          "name": "to",
          "type": "address"
        },
        {
          "indexed": false,
          "internalType": "uint256",
          "name": "value",
          "type": "uint256"
        }
      ],
      "name": "Transfer",
      "type": "event"
    },
    {
      "anonymous": false,
      "inputs": [
        {
          "indexed": false,
          "internalType": "address",
          "name": "account",
          "type": "address"
        }
      ],
      "name": "Unpaused",
      "type": "event"
    },
    {
      "inputs": [],
      "name": "CLOCK_MODE",
      "outputs": [
        {
          "internalType": "string",
          "name": "",
          "type": "string"
        }
      ],
      "stateMutability": "view",
      "type": "function"
    },
    {
      "inputs": [],
      "name": "DOMAIN_SEPARATOR",
      "outputs": [
        {
          "internalType": "bytes32",
          "name": "",
          "type": "bytes32"
        }
      ],
      "stateMutability": "view",
      "type": "function"
    },
    {
      "inputs": [
        {
          "internalType": "address",
          "name": "owner",
          "type": "address"
        },
        {
          "internalType": "address",
          "name": "spender",
          "type": "address"
        }
      ],
      "name": "allowance",
      "outputs": [
        {
          "internalType": "uint256",
          "name": "",
          "type": "uint256"
        }
      ],
      "stateMutability": "view",
      "type": "function"
    },
    {
      "inputs": [
        {
          "internalType": "address",
          "name": "spender",
          "type": "address"
        },
        {
          "internalType": "uint256",
          "name": "value",
          "type": "uint256"
        }
      ],
      "name": "approve",
      "outputs": [
        {
          "internalType": "bool",
          "name": "",
          "type": "bool"
        }
      ],
      "stateMutability": "nonpayable",
      "type": "function"
    },
    {
      "inputs": [
        {
          "internalType": "address",
          "name": "account",
          "type": "address"
        }
      ],
      "name": "balanceOf",
      "outputs": [
        {
          "internalType": "uint256",
          "name": "",
          "type": "uint256"
        }
      ],
      "stateMutability": "view",
      "type": "function"
    },
    {
      "inputs": [
        {
          "internalType": "uint256",
          "name": "value",
          "type": "uint256"
        }
      ],
      "name": "burn",
      "outputs": [],
      "stateMutability": "nonpayable",
      "type": "function"
    },
    {
      "inputs": [
        {
          "internalType": "address",
          "name": "account",
          "type": "address"
        },
        {
          "internalType": "uint256",
          "name": "value",
          "type": "uint256"
        }
      ],
      "name": "burnFrom",
      "outputs": [],
      "stateMutability": "nonpayable",
      "type": "function"
    },
    {
      "inputs": [
        {
          "internalType": "address",
          "name": "account",
          "type": "address"
        },
        {
          "internalType": "uint32",
          "name": "pos",
          "type": "uint32"
        }
      ],
      "name": "checkpoints",
      "outputs": [
        {
          "components": [
            {
              "internalType": "uint48",
              "name": "_key",
              "type": "uint48"
            },
            {
              "internalType": "uint208",
              "name": "_value",
              "type": "uint208"
            }
          ],
          "internalType": "struct Checkpoints.Checkpoint208",
          "name": "",
          "type": "tuple"
        }
      ],
      "stateMutability": "view",
      "type": "function"
    },
    {
      "inputs": [],
      "name": "clock",
      "outputs": [
        {
          "internalType": "uint48",
          "name": "",
          "type": "uint48"
        }
      ],
      "stateMutability": "view",
      "type": "function"
    },
    {
      "inputs": [],
      "name": "decimals",
      "outputs": [
        {
          "internalType": "uint8",
          "name": "",
          "type": "uint8"
        }
      ],
      "stateMutability": "view",
      "type": "function"
    },
    {
      "inputs": [
        {
          "internalType": "address",
          "name": "delegatee",
          "type": "address"
        }
      ],
      "name": "delegate",
      "outputs": [],
      "stateMutability": "nonpayable",
      "type": "function"
    },
    {
      "inputs": [
        {
          "internalType": "address",
          "name": "delegatee",
          "type": "address"
        },
        {
          "internalType": "uint256",
          "name": "nonce",
          "type": "uint256"
        },
        {
          "internalType": "uint256",
          "name": "expiry",
          "type": "uint256"
        },
        {
          "internalType": "uint8",
          "name": "v",
          "type": "uint8"
        },
        {
          "internalType": "bytes32",
          "name": "r",
          "type": "bytes32"
        },
        {
          "internalType": "bytes32",
          "name": "s",
          "type": "bytes32"
        }
      ],
      "name": "delegateBySig",
      "outputs": [],
      "stateMutability": "nonpayable",
      "type": "function"
    },
    {
      "inputs": [
        {
          "internalType": "address",
          "name": "account",
          "type": "address"
        }
      ],
      "name": "delegates",
      "outputs": [
        {
          "internalType": "address",
          "name": "",
          "type": "address"
        }
      ],
      "stateMutability": "view",
      "type": "function"
    },
    {
      "inputs": [],
      "name": "eip712Domain",
      "outputs": [
        {
          "internalType": "bytes1",
          "name": "fields",
          "type": "bytes1"
        },
        {
          "internalType": "string",
          "name": "name",
          "type": "string"
        },
        {
          "internalType": "string",
          "name": "version",
          "type": "string"
        },
        {
          "internalType": "uint256",
          "name": "chainId",
          "type": "uint256"
        },
        {
          "internalType": "address",
          "name": "verifyingContract",
          "type": "address"
        },
        {
          "internalType": "bytes32",
          "name": "salt",
          "type": "bytes32"
        },
        {
          "internalType": "uint256[]",
          "name": "extensions",
          "type": "uint256[]"
        }
      ],
      "stateMutability": "view",
      "type": "function"
    },
    {
      "inputs": [
        {
          "internalType": "uint256",
          "name": "timepoint",
          "type": "uint256"
        }
      ],
      "name": "getPastTotalSupply",
      "outputs": [
        {
          "internalType": "uint256",
          "name": "",
          "type": "uint256"
        }
      ],
      "stateMutability": "view",
      "type": "function"
    },
    {
      "inputs": [
        {
          "internalType": "address",
          "name": "account",
          "type": "address"
        },
        {
          "internalType": "uint256",
          "name": "timepoint",
          "type": "uint256"
        }
      ],
      "name": "getPastVotes",
      "outputs": [
        {
          "internalType": "uint256",
          "name": "",
          "type": "uint256"
        }
      ],
      "stateMutability": "view",
      "type": "function"
    },
    {
      "inputs": [
        {
          "internalType": "address",
          "name": "account",
          "type": "address"
        }
      ],
      "name": "getVotes",
      "outputs": [
        {
          "internalType": "uint256",
          "name": "",
          "type": "uint256"
        }
      ],
      "stateMutability": "view",
      "type": "function"
    },
    {
      "inputs": [
        {
          "internalType": "address",
          "name": "to",
          "type": "address"
        },
        {
          "internalType": "uint256",
          "name": "amount",
          "type": "uint256"
        }
      ],
      "name": "mint",
      "outputs": [],
      "stateMutability": "nonpayable",
      "type": "function"
    },
    {
      "inputs": [],
      "name": "name",
      "outputs": [
        {
          "internalType": "string",
          "name": "",
          "type": "string"
        }
      ],
      "stateMutability": "view",
      "type": "function"
    },
    {
      "inputs": [
        {
          "internalType": "address",
          "name": "owner",
          "type": "address"
        }
      ],
      "name": "nonces",
      "outputs": [
        {
          "internalType": "uint256",
          "name": "",
          "type": "uint256"
        }
      ],
      "stateMutability": "view",
      "type": "function"
    },
    {
      "inputs": [
        {
          "internalType": "address",
          "name": "account",
          "type": "address"
        }
      ],
      "name": "numCheckpoints",
      "outputs": [
        {
          "internalType": "uint32",
          "name": "",
          "type": "uint32"
        }
      ],
      "stateMutability": "view",
      "type": "function"
    },
    {
      "inputs": [],
      "name": "owner",
      "outputs": [
        {
          "internalType": "address",
          "name": "",
          "type": "address"
        }
      ],
      "stateMutability": "view",
      "type": "function"
    },
    {
      "inputs": [],
      "name": "pause",
      "outputs": [],
      "stateMutability": "nonpayable",
      "type": "function"
    },
    {
      "inputs": [],
      "name": "paused",
      "outputs": [
        {
          "internalType": "bool",
          "name": "",
          "type": "bool"
        }
      ],
      "stateMutability": "view",
      "type": "function"
    },
    {
      "inputs": [
        {
          "internalType": "address",
          "name": "owner",
          "type": "address"
        },
        {
          "internalType": "address",
          "name": "spender",
          "type": "address"
        },
        {
          "internalType": "uint256",
          "name": "value",
          "type": "uint256"
        },
        {
          "internalType": "uint256",
          "name": "deadline",
          "type": "uint256"
        },
        {
          "internalType": "uint8",
          "name": "v",
          "type": "uint8"
        },
        {
          "internalType": "bytes32",
          "name": "r",
          "type": "bytes32"
        },
        {
          "internalType": "bytes32",
          "name": "s",
          "type": "bytes32"
        }
      ],
      "name": "permit",
      "outputs": [],
      "stateMutability": "nonpayable",
      "type": "function"
    },
    {
      "inputs": [],
      "name": "renounceOwnership",
      "outputs": [],
      "stateMutability": "nonpayable",
      "type": "function"
    },
    {
      "inputs": [],
      "name": "symbol",
      "outputs": [
        {
          "internalType": "string",
          "name": "",
          "type": "string"
        }
      ],
      "stateMutability": "view",
      "type": "function"
    },
    {
      "inputs": [],
      "name": "totalSupply",
      "outputs": [
        {
          "internalType": "uint256",
          "name": "",
          "type": "uint256"
        }
      ],
      "stateMutability": "view",
      "type": "function"
    },
    {
      "inputs": [
        {
          "internalType": "address",
          "name": "to",
          "type": "address"
        },
        {
          "internalType": "uint256",
          "name": "value",
          "type": "uint256"
        }
      ],
      "name": "transfer",
      "outputs": [
        {
          "internalType": "bool",
          "name": "",
          "type": "bool"
        }
      ],
      "stateMutability": "nonpayable",
      "type": "function"
    },
    {
      "inputs": [
        {
          "internalType": "address",
          "name": "from",
          "type": "address"
        },
        {
          "internalType": "address",
          "name": "to",
          "type": "address"
        },
        {
          "internalType": "uint256",
          "name": "value",
          "type": "uint256"
        }
      ],
      "name": "transferFrom",
      "outputs": [
        {
          "internalType": "bool",
          "name": "",
          "type": "bool"
        }
      ],
      "stateMutability": "nonpayable",
      "type": "function"
    },
    {
      "inputs": [
        {
          "internalType": "address",
          "name": "newOwner",
          "type": "address"
        }
      ],
      "name": "transferOwnership",
      "outputs": [],
      "stateMutability": "nonpayable",
      "type": "function"
    },
    {
      "inputs": [],
      "name": "unpause",
      "outputs": [],
      "stateMutability": "nonpayable",
      "type": "function"
    }
  ],
  "bytecode": "0x610160604052348015610010575f5ffd5b50604051612d5d380380612d5d83398101604081905261002f91610923565b60405180604001604052806007815260200166426f6c65746f3360c81b81525080604051806040016040528060018152602001603160f81b8152508360405180604001604052806007815260200166426f6c65746f3360c81b81525060405180604001604052806004815260200163424f4c3360e01b81525081600390816100b791906109eb565b5060046100c482826109eb565b5050506001600160a01b0381166100f557604051631e4fbdf760e01b81525f60048201526024015b60405180910390fd5b6100fe816101d8565b5061010a826006610231565b61012052610119816007610231565b61014052815160208084019190912060e052815190820120610100524660a0526101a560e05161010051604080517f8b73c3c69bb8fe3d512ecc4cf759cc79239f7b179b0ffacaa9a75d522b39400f60208201529081019290925260608201524660808201523060a08201525f9060c00160405160208183030381529060405280519060200120905090565b60805250503060c052506101d1826101bf6012600a610b94565b6101cc90620f4240610ba2565b610263565b5050610c75565b600580546001600160a01b03838116610100818102610100600160a81b031985161790945560405193909204169182907f8be0079c531659141344cd1fd0a4f28419497f9722a3daafe3b4186f6b6457e0905f90a35050565b5f60208351101561024c576102458361029b565b905061025d565b8161025784826109eb565b5060ff90505b92915050565b6001600160a01b03821661028c5760405163ec442f0560e01b81525f60048201526024016100ec565b6102975f83836102d8565b5050565b5f5f829050601f815111156102c5578260405163305a27a960e01b81526004016100ec9190610bb9565b80516102d082610bee565b179392505050565b6102e38383836102e8565b505050565b6102f383838361034e565b6001600160a01b038316610343575f61030b60025490565b90506001600160d01b038082111561034057604051630e58ae9360e11b815260048101839052602481018290526044016100ec565b50505b6102e3838383610361565b6103566103e9565b6102e383838361040f565b6001600160a01b03831661038f5761038c600b6109f161053560201b1761038784610547565b61057e565b50505b6001600160a01b0382166103b8576103b5600b6109fc6105b360201b1761038784610547565b50505b6001600160a01b038381165f908152600960205260408082205485841683529120546102e3929182169116836105be565b60055460ff161561040d5760405163d93c066560e01b815260040160405180910390fd5b565b6001600160a01b038316610439578060025f82825461042e9190610c11565b909155506104a99050565b6001600160a01b0383165f908152602081905260409020548181101561048b5760405163391434e360e21b81526001600160a01b038516600482015260248101829052604481018390526064016100ec565b6001600160a01b0384165f9081526020819052604090209082900390555b6001600160a01b0382166104c5576002805482900390556104e3565b6001600160a01b0382165f9081526020819052604090208054820190555b816001600160a01b0316836001600160a01b03167fddf252ad1be2c89b69c2b068fc378daa952ba7f163c4a11628f55a4df523b3ef8360405161052891815260200190565b60405180910390a3505050565b5f6105408284610c24565b9392505050565b5f6001600160d01b0382111561057a576040516306dfcc6560e41b815260d06004820152602481018390526044016100ec565b5090565b5f806105a661058b61070e565b61059e6105978861071c565b868860201c565b879190610763565b915091505b935093915050565b5f6105408284610c43565b816001600160a01b0316836001600160a01b0316141580156105df57505f81115b156102e3576001600160a01b03831615610677576001600160a01b0383165f908152600a602090815260408220829161062591906105b3901b6109fc1761038786610547565b6001600160d01b031691506001600160d01b03169150846001600160a01b03165f516020612d3d5f395f51905f52838360405161066c929190918252602082015260400190565b60405180910390a250505b6001600160a01b038216156102e3576001600160a01b0382165f908152600a60209081526040822082916106b89190610535901b6109f11761038786610547565b6001600160d01b031691506001600160d01b03169150836001600160a01b03165f516020612d3d5f395f51905f5283836040516106ff929190918252602082015260400190565b60405180910390a25050505050565b5f610717610770565b905090565b80545f90801561075b5761074283610735600184610c62565b5f91825260209091200190565b54660100000000000090046001600160d01b0316610540565b5f9392505050565b5f806105a685858561077a565b5f610717436108d6565b82545f9081908015610879575f61079687610735600185610c62565b805490915065ffffffffffff80821691660100000000000090046001600160d01b03169088168211156107dc57604051632520601d60e01b815260040160405180910390fd5b8765ffffffffffff168265ffffffffffff160361081857825465ffffffffffff1666010000000000006001600160d01b0389160217835561086b565b6040805180820190915265ffffffffffff808a1682526001600160d01b03808a1660208085019182528d54600181018f555f8f815291909120945191519092166601000000000000029216919091179101555b94508593506105ab92505050565b50506040805180820190915265ffffffffffff80851682526001600160d01b0380851660208085019182528854600181018a555f8a81529182209551925190931666010000000000000291909316179201919091559050816105ab565b5f65ffffffffffff82111561057a576040516306dfcc6560e41b815260306004820152602481018390526044016100ec565b80516001600160a01b038116811461091e575f5ffd5b919050565b5f5f60408385031215610934575f5ffd5b61093d83610908565b915061094b60208401610908565b90509250929050565b634e487b7160e01b5f52604160045260245ffd5b600181811c9082168061097c57607f821691505b60208210810361099a57634e487b7160e01b5f52602260045260245ffd5b50919050565b601f8211156102e357805f5260205f20601f840160051c810160208510156109c55750805b601f840160051c820191505b818110156109e4575f81556001016109d1565b5050505050565b81516001600160401b03811115610a0457610a04610954565b610a1881610a128454610968565b846109a0565b6020601f821160018114610a4a575f8315610a335750848201515b5f19600385901b1c1916600184901b1784556109e4565b5f84815260208120601f198516915b82811015610a795787850151825560209485019460019092019101610a59565b5084821015610a9657868401515f19600387901b60f8161c191681555b50505050600190811b01905550565b634e487b7160e01b5f52601160045260245ffd5b6001815b60018411156105ab57808504811115610ad857610ad8610aa5565b6001841615610ae657908102905b60019390931c928002610abd565b5f82610b025750600161025d565b81610b0e57505f61025d565b8160018114610b245760028114610b2e57610b4a565b600191505061025d565b60ff841115610b3f57610b3f610aa5565b50506001821b61025d565b5060208310610133831016604e8410600b8410161715610b6d575081810a61025d565b610b795f198484610ab9565b805f1904821115610b8c57610b8c610aa5565b029392505050565b5f61054060ff841683610af4565b808202811582820484141761025d5761025d610aa5565b602081525f82518060208401528060208501604085015e5f604082850101526040601f19601f83011684010191505092915050565b8051602080830151919081101561099a575f1960209190910360031b1b16919050565b8082018082111561025d5761025d610aa5565b6001600160d01b03818116838216019081111561025d5761025d610aa5565b6001600160d01b03828116828216039081111561025d5761025d610aa5565b8181038181111561025d5761025d610aa5565b60805160a05160c05160e051610100516101205161014051612077610cc65f395f610f8901525f610f5c01525f610bcb01525f610ba301525f610afe01525f610b2801525f610b5201526120775ff3fe608060405234801561000f575f5ffd5b50600436106101e7575f3560e01c8063715018a61161010957806395d89b411161009e578063d505accf1161006e578063d505accf1461043e578063dd62ed3e14610451578063f1127ed814610489578063f2fde38b146104c8575f5ffd5b806395d89b41146103fd5780639ab24eb014610405578063a9059cbb14610418578063c3cda5201461042b575f5ffd5b806384b0196e116100d957806384b0196e1461039a5780638da5cb5b146103b55780638e539e8c146103cb57806391ddadf4146103de575f5ffd5b8063715018a61461036457806379cc67901461036c5780637ecebe001461037f5780638456cb5914610392575f5ffd5b806340c10f191161017f5780635c19a95c1161014f5780635c19a95c146102f65780635c975abb146103095780636fcfff451461031457806370a082311461033c575f5ffd5b806340c10f191461028557806342966c68146102985780634bf5d7e9146102ab578063587cde1e146102b3575f5ffd5b8063313ce567116101ba578063313ce567146102515780633644e515146102605780633a46b1a8146102685780633f4ba83a1461027b575f5ffd5b806306fdde03146101eb578063095ea7b31461020957806318160ddd1461022c57806323b872dd1461023e575b5f5ffd5b6101f36104db565b6040516102009190611ca9565b60405180910390f35b61021c610217366004611cd6565b61056b565b6040519015158152602001610200565b6002545b604051908152602001610200565b61021c61024c366004611cfe565b610584565b60405160128152602001610200565b6102306105a7565b610230610276366004611cd6565b6105b5565b6102836105ef565b005b610283610293366004611cd6565b610601565b6102836102a6366004611d38565b610617565b6101f3610624565b6102de6102c1366004611d4f565b6001600160a01b039081165f908152600960205260409020541690565b6040516001600160a01b039091168152602001610200565b610283610304366004611d4f565b61069c565b60055460ff1661021c565b610327610322366004611d4f565b6106a7565b60405163ffffffff9091168152602001610200565b61023061034a366004611d4f565b6001600160a01b03165f9081526020819052604090205490565b6102836106b1565b61028361037a366004611cd6565b6106c2565b61023061038d366004611d4f565b6106d7565b6102836106e1565b6103a26106f1565b6040516102009796959493929190611d68565b60055461010090046001600160a01b03166102de565b6102306103d9366004611d38565b610733565b6103e6610757565b60405165ffffffffffff9091168152602001610200565b6101f3610760565b610230610413366004611d4f565b61076f565b61021c610426366004611cd6565b61078f565b610283610439366004611e0e565b61079c565b61028361044c366004611e62565b61085d565b61023061045f366004611ec8565b6001600160a01b039182165f90815260016020908152604080832093909416825291909152205490565b61049c610497366004611ef9565b610993565b60408051825165ffffffffffff1681526020928301516001600160d01b03169281019290925201610200565b6102836104d6366004611d4f565b6109b7565b6060600380546104ea90611f36565b80601f016020809104026020016040519081016040528092919081815260200182805461051690611f36565b80156105615780601f1061053857610100808354040283529160200191610561565b820191905f5260205f20905b81548152906001019060200180831161054457829003601f168201915b5050505050905090565b5f33610578818585610a07565b60019150505b92915050565b5f33610591858285610a19565b61059c858585610a95565b506001949350505050565b5f6105b0610af2565b905090565b5f6105df6105c283610c1b565b6001600160a01b0385165f908152600a6020526040902090610c69565b6001600160d01b03169392505050565b6105f7610d19565b6105ff610d4c565b565b610609610d19565b6106138282610d9e565b5050565b6106213382610dd2565b50565b606061062e610e06565b65ffffffffffff1661063e610757565b65ffffffffffff1614610664576040516301bfc1c560e61b815260040160405180910390fd5b5060408051808201909152601d81527f6d6f64653d626c6f636b6e756d6265722666726f6d3d64656661756c74000000602082015290565b336106138183610e10565b5f61057e82610e81565b6106b9610d19565b6105ff5f610ea2565b6106cd823383610a19565b6106138282610dd2565b5f61057e82610efb565b6106e9610d19565b6105ff610f18565b5f6060805f5f5f6060610702610f55565b61070a610f82565b604080515f80825260208201909252600f60f81b9b939a50919850469750309650945092509050565b5f61074861074083610c1b565b600b90610c69565b6001600160d01b031692915050565b5f6105b0610e06565b6060600480546104ea90611f36565b6001600160a01b0381165f908152600a6020526040812061074890610faf565b5f33610578818585610a95565b834211156107c557604051632341d78760e11b8152600481018590526024015b60405180910390fd5b604080517fe48329057bfd03d55e49b547132e39cffd9c1820ad7b9d4c5307691425d15adf60208201526001600160a01b0388169181019190915260608101869052608081018590525f9061083e906108369060a00160405160208183030381529060405280519060200120610fe6565b858585611012565b905061084a818761103e565b6108548188610e10565b50505050505050565b834211156108815760405163313c898160e11b8152600481018590526024016107bc565b5f7f6e71edae12b1b97f4d1f60370fef10105fa2faae0126114a169c64845d6126c98888886108cc8c6001600160a01b03165f90815260086020526040902080546001810190915590565b6040805160208101969096526001600160a01b0394851690860152929091166060840152608083015260a082015260c0810186905260e0016040516020818303038152906040528051906020012090505f61092682610fe6565b90505f61093582878787611012565b9050896001600160a01b0316816001600160a01b03161461097c576040516325c0072360e11b81526001600160a01b0380831660048301528b1660248201526044016107bc565b6109878a8a8a610a07565b50505050505050505050565b604080518082019091525f80825260208201526109b08383611090565b9392505050565b6109bf610d19565b6001600160a01b0381166109e857604051631e4fbdf760e01b81525f60048201526024016107bc565b61062181610ea2565b5f6109b08284611f82565b5f6109b08284611fa1565b610a1483838360016110c4565b505050565b6001600160a01b038381165f908152600160209081526040808320938616835292905220545f19811015610a8f5781811015610a8157604051637dc7a0d960e11b81526001600160a01b038416600482015260248101829052604481018390526064016107bc565b610a8f84848484035f6110c4565b50505050565b6001600160a01b038316610abe57604051634b637e8f60e11b81525f60048201526024016107bc565b6001600160a01b038216610ae75760405163ec442f0560e01b81525f60048201526024016107bc565b610a14838383611196565b5f306001600160a01b037f000000000000000000000000000000000000000000000000000000000000000016148015610b4a57507f000000000000000000000000000000000000000000000000000000000000000046145b15610b7457507f000000000000000000000000000000000000000000000000000000000000000090565b6105b0604080517f8b73c3c69bb8fe3d512ecc4cf759cc79239f7b179b0ffacaa9a75d522b39400f60208201527f0000000000000000000000000000000000000000000000000000000000000000918101919091527f000000000000000000000000000000000000000000000000000000000000000060608201524660808201523060a08201525f9060c00160405160208183030381529060405280519060200120905090565b5f5f610c25610757565b90508065ffffffffffff168310610c6057604051637669fc0f60e11b81526004810184905265ffffffffffff821660248201526044016107bc565b6109b0836111a1565b81545f9081816005811115610cc5575f610c82846111d7565b610c8c9085611fc0565b5f8881526020902090915081015465ffffffffffff9081169087161015610cb557809150610cc3565b610cc0816001611fd3565b92505b505b5f610cd28787858561132f565b90508015610d0c57610cf687610ce9600184611fc0565b5f91825260209091200190565b54600160301b90046001600160d01b0316610d0e565b5f5b979650505050505050565b6005546001600160a01b036101009091041633146105ff5760405163118cdaa760e01b81523360048201526024016107bc565b610d5461138e565b6005805460ff191690557f5db9ee0a495bf2e6ff9c91a7834c1ba4fdd244a5e8aa4e537bd38aeae4b073aa335b6040516001600160a01b03909116815260200160405180910390a1565b6001600160a01b038216610dc75760405163ec442f0560e01b81525f60048201526024016107bc565b6106135f8383611196565b6001600160a01b038216610dfb57604051634b637e8f60e11b81525f60048201526024016107bc565b610613825f83611196565b5f6105b0436111a1565b6001600160a01b038281165f8181526009602052604080822080548686166001600160a01b0319821681179092559151919094169392849290917f3134e8a2e6d97e929a7e54011ea5485d7d196dd5f0ba4d4ef95803e8e3fc257f9190a4610a148183610e7c866113b1565b6113ce565b6001600160a01b0381165f908152600a602052604081205461057e90611537565b600580546001600160a01b03838116610100818102610100600160a81b031985161790945560405193909204169182907f8be0079c531659141344cd1fd0a4f28419497f9722a3daafe3b4186f6b6457e0905f90a35050565b6001600160a01b0381165f9081526008602052604081205461057e565b610f20611567565b6005805460ff191660011790557f62e78cea01bee320cd4e420270b5ea74000d11b0c9f74754ebdbfc544b05a258610d813390565b60606105b07f0000000000000000000000000000000000000000000000000000000000000000600661158b565b60606105b07f0000000000000000000000000000000000000000000000000000000000000000600761158b565b80545f908015610fde57610fc883610ce9600184611fc0565b54600160301b90046001600160d01b03166109b0565b5f9392505050565b5f61057e610ff2610af2565b8360405161190160f01b8152600281019290925260228201526042902090565b5f5f5f5f61102288888888611634565b92509250925061103282826116fc565b50909695505050505050565b6001600160a01b0382165f908152600860205260409020805460018101909155818114610a14576040516301d4b62360e61b81526001600160a01b0384166004820152602481018290526044016107bc565b604080518082019091525f80825260208201526001600160a01b0383165f908152600a602052604090206109b090836117b4565b6001600160a01b0384166110ed5760405163e602df0560e01b81525f60048201526024016107bc565b6001600160a01b03831661111657604051634a1406b160e11b81525f60048201526024016107bc565b6001600160a01b038085165f9081526001602090815260408083209387168352929052208290558015610a8f57826001600160a01b0316846001600160a01b03167f8c5be1e5ebec7d5bd14f71427d1e84f3dd0314c0f7b2291e5b200ac8c7c3b9258460405161118891815260200190565b60405180910390a350505050565b610a14838383611821565b5f65ffffffffffff8211156111d3576040516306dfcc6560e41b815260306004820152602481018390526044016107bc565b5090565b5f600182116111e4575090565b816001600160801b82106111fd5760809190911c9060401b5b6801000000000000000082106112185760409190911c9060201b5b640100000000821061122f5760209190911c9060101b5b6201000082106112445760109190911c9060081b5b61010082106112585760089190911c9060041b5b6010821061126b5760049190911c9060021b5b600482106112775760011b5b600302600190811c9081858161128f5761128f611fe6565b048201901c905060018185816112a7576112a7611fe6565b048201901c905060018185816112bf576112bf611fe6565b048201901c905060018185816112d7576112d7611fe6565b048201901c905060018185816112ef576112ef611fe6565b048201901c9050600181858161130757611307611fe6565b048201901c905061132681858161132057611320611fe6565b04821190565b90039392505050565b5f5b81831015611386575f6113448484611887565b5f8781526020902090915065ffffffffffff86169082015465ffffffffffff16111561137257809250611380565b61137d816001611fd3565b93505b50611331565b509392505050565b60055460ff166105ff57604051638dfc202b60e01b815260040160405180910390fd5b6001600160a01b0381165f9081526020819052604081205461057e565b816001600160a01b0316836001600160a01b0316141580156113ef57505f81115b15610a14576001600160a01b03831615611496576001600160a01b0383165f908152600a602052604081208190611431906109fc61142c866118a1565b6118d4565b6001600160d01b031691506001600160d01b03169150846001600160a01b03167fdec2bacdd2f05b59de34da9b523dff8be42e5e38e818c82fdb0bae774387a724838360405161148b929190918252602082015260400190565b60405180910390a250505b6001600160a01b03821615610a14576001600160a01b0382165f908152600a6020526040812081906114ce906109f161142c866118a1565b6001600160d01b031691506001600160d01b03169150836001600160a01b03167fdec2bacdd2f05b59de34da9b523dff8be42e5e38e818c82fdb0bae774387a7248383604051611528929190918252602082015260400190565b60405180910390a25050505050565b5f63ffffffff8211156111d3576040516306dfcc6560e41b815260206004820152602481018390526044016107bc565b60055460ff16156105ff5760405163d93c066560e01b815260040160405180910390fd5b606060ff83146115a55761159e8361190c565b905061057e565b8180546115b190611f36565b80601f01602080910402602001604051908101604052809291908181526020018280546115dd90611f36565b80156116285780601f106115ff57610100808354040283529160200191611628565b820191905f5260205f20905b81548152906001019060200180831161160b57829003601f168201915b5050505050905061057e565b5f80807f7fffffffffffffffffffffffffffffff5d576e7357a4501ddfe92f46681b20a084111561166d57505f915060039050826116f2565b604080515f808252602082018084528a905260ff891692820192909252606081018790526080810186905260019060a0016020604051602081039080840390855afa1580156116be573d5f5f3e3d5ffd5b5050604051601f1901519150506001600160a01b0381166116e957505f9250600191508290506116f2565b92505f91508190505b9450945094915050565b5f82600381111561170f5761170f611ffa565b03611718575050565b600182600381111561172c5761172c611ffa565b0361174a5760405163f645eedf60e01b815260040160405180910390fd5b600282600381111561175e5761175e611ffa565b0361177f5760405163fce698f760e01b8152600481018290526024016107bc565b600382600381111561179357611793611ffa565b03610613576040516335e2f38360e21b8152600481018290526024016107bc565b604080518082019091525f8082526020820152825f018263ffffffff16815481106117e1576117e161200e565b5f9182526020918290206040805180820190915291015465ffffffffffff81168252600160301b90046001600160d01b0316918101919091529392505050565b61182c838383611949565b6001600160a01b03831661187c575f61184460025490565b90506001600160d01b038082111561187957604051630e58ae9360e11b815260048101839052602481018290526044016107bc565b50505b610a1483838361195c565b5f6118956002848418612022565b6109b090848416611fd3565b5f6001600160d01b038211156111d3576040516306dfcc6560e41b815260d06004820152602481018390526044016107bc565b5f5f6118ff6118e1610757565b6118f76118ed88610faf565b868863ffffffff16565b8791906119d1565b915091505b935093915050565b60605f611918836119de565b6040805160208082528183019092529192505f91906020820181803683375050509182525060208101929092525090565b611951611567565b610a14838383611a05565b6001600160a01b03831661197e5761197b600b6109f161142c846118a1565b50505b6001600160a01b0382166119a05761199d600b6109fc61142c846118a1565b50505b6001600160a01b038381165f90815260096020526040808220548584168352912054610a14929182169116836113ce565b5f806118ff858585611b2b565b5f60ff8216601f81111561057e57604051632cd44ac360e21b815260040160405180910390fd5b6001600160a01b038316611a2f578060025f828254611a249190611fd3565b90915550611a9f9050565b6001600160a01b0383165f9081526020819052604090205481811015611a815760405163391434e360e21b81526001600160a01b038516600482015260248101829052604481018390526064016107bc565b6001600160a01b0384165f9081526020819052604090209082900390555b6001600160a01b038216611abb57600280548290039055611ad9565b6001600160a01b0382165f9081526020819052604090208054820190555b816001600160a01b0316836001600160a01b03167fddf252ad1be2c89b69c2b068fc378daa952ba7f163c4a11628f55a4df523b3ef83604051611b1e91815260200190565b60405180910390a3505050565b82545f9081908015611c21575f611b4787610ce9600185611fc0565b805490915065ffffffffffff80821691600160301b90046001600160d01b0316908816821115611b8a57604051632520601d60e01b815260040160405180910390fd5b8765ffffffffffff168265ffffffffffff1603611bc357825465ffffffffffff16600160301b6001600160d01b03891602178355611c13565b6040805180820190915265ffffffffffff808a1682526001600160d01b03808a1660208085019182528d54600181018f555f8f81529190912094519151909216600160301b029216919091179101555b945085935061190492505050565b50506040805180820190915265ffffffffffff80851682526001600160d01b0380851660208085019182528854600181018a555f8a815291822095519251909316600160301b029190931617920191909155905081611904565b5f81518084528060208401602086015e5f602082860101526020601f19601f83011685010191505092915050565b602081525f6109b06020830184611c7b565b80356001600160a01b0381168114611cd1575f5ffd5b919050565b5f5f60408385031215611ce7575f5ffd5b611cf083611cbb565b946020939093013593505050565b5f5f5f60608486031215611d10575f5ffd5b611d1984611cbb565b9250611d2760208501611cbb565b929592945050506040919091013590565b5f60208284031215611d48575f5ffd5b5035919050565b5f60208284031215611d5f575f5ffd5b6109b082611cbb565b60ff60f81b8816815260e060208201525f611d8660e0830189611c7b565b8281036040840152611d988189611c7b565b606084018890526001600160a01b038716608085015260a0840186905283810360c0850152845180825260208087019350909101905f5b81811015611ded578351835260209384019390920191600101611dcf565b50909b9a5050505050505050505050565b803560ff81168114611cd1575f5ffd5b5f5f5f5f5f5f60c08789031215611e23575f5ffd5b611e2c87611cbb565b95506020870135945060408701359350611e4860608801611dfe565b9598949750929560808101359460a0909101359350915050565b5f5f5f5f5f5f5f60e0888a031215611e78575f5ffd5b611e8188611cbb565b9650611e8f60208901611cbb565b95506040880135945060608801359350611eab60808901611dfe565b9699959850939692959460a0840135945060c09093013592915050565b5f5f60408385031215611ed9575f5ffd5b611ee283611cbb565b9150611ef060208401611cbb565b90509250929050565b5f5f60408385031215611f0a575f5ffd5b611f1383611cbb565b9150602083013563ffffffff81168114611f2b575f5ffd5b809150509250929050565b600181811c90821680611f4a57607f821691505b602082108103611f6857634e487b7160e01b5f52602260045260245ffd5b50919050565b634e487b7160e01b5f52601160045260245ffd5b6001600160d01b03818116838216019081111561057e5761057e611f6e565b6001600160d01b03828116828216039081111561057e5761057e611f6e565b8181038181111561057e5761057e611f6e565b8082018082111561057e5761057e611f6e565b634e487b7160e01b5f52601260045260245ffd5b634e487b7160e01b5f52602160045260245ffd5b634e487b7160e01b5f52603260045260245ffd5b5f8261203c57634e487b7160e01b5f52601260045260245ffd5b50049056fea2646970667358221220d73e4f7f9af887c29fe5836a21ee7bfddadfe099e9ad477372ee7eed8c7d651764736f6c634300081c0033dec2bacdd2f05b59de34da9b523dff8be42e5e38e818c82fdb0bae774387a724",
  "linkReferences": {},
  "deployedLinkReferences": {},
  "immutableReferences": {
    "4352": [
      {
        "length": 32,
        "start": 2898
      }
    ],
    "4354": [
      {
        "length": 32,
        "start": 2856
      }
    ],
    "4356": [
      {
        "length": 32,
        "start": 2814
      }
    ],
    "4358": [
      {
        "length": 32,
        "start": 2979
      }
    ],
    "4360": [
      {
        "length": 32,
        "start": 3019
      }
    ],
    "4363": [
      {
        "length": 32,
        "start": 3932
      }
    ],
    "4366": [
      {
        "length": 32,
        "start": 3977
      }
    ]
  },
  "inputSourceName": "project/contracts/Boleto3.sol",
  "buildInfoId": "solc-0_8_28-cbe35806316b07724ca25001a8bb8a559099e766"
}